{
  "contractName": "rand",
  "abi": [
    {
      "inputs": [],
      "payable": false,
      "stateMutability": "nonpayable",
      "type": "constructor"
    },
    {
      "constant": true,
      "inputs": [],
      "name": "getRand",
      "outputs": [
        {
          "name": "",
          "type": "uint256"
        }
      ],
      "payable": false,
      "stateMutability": "view",
      "type": "function"
    },
    {
      "constant": false,
      "inputs": [],
      "name": "update",
      "outputs": [
        {
          "name": "",
          "type": "uint256"
        }
      ],
      "payable": false,
      "stateMutability": "nonpayable",
      "type": "function"
    },
    {
      "constant": true,
      "inputs": [],
      "name": "easyRand",
      "outputs": [
        {
          "name": "",
          "type": "uint256"
        }
      ],
      "payable": false,
      "stateMutability": "view",
      "type": "function"
    }
  ],
  "bytecode": "0x608060405234801561001057600080fd5b50610028610033640100000000026401000000009004565b6000819055506100bf565b600080600054424333604051602001808581526020018481526020018381526020018273ffffffffffffffffffffffffffffffffffffffff1673ffffffffffffffffffffffffffffffffffffffff166c01000000000000000000000000028152601401945050505050604051602081830303815290604052805190602001206001900490508091505090565b6101e3806100ce6000396000f3fe608060405260043610610057576000357c0100000000000000000000000000000000000000000000000000000000900463ffffffff1680633266a7131461005c578063600bc4ea14610087578063a2e62045146100b2575b600080fd5b34801561006857600080fd5b506100716100dd565b6040518082815260200191505060405180910390f35b34801561009357600080fd5b5061009c610110565b6040518082815260200191505060405180910390f35b3480156100be57600080fd5b506100c761019c565b6040518082815260200191505060405180910390f35b60008054604051602001808281526020019150506040516020818303038152906040528051906020012060019004905090565b600080600054424333604051602001808581526020018481526020018381526020018273ffffffffffffffffffffffffffffffffffffffff1673ffffffffffffffffffffffffffffffffffffffff166c01000000000000000000000000028152601401945050505050604051602081830303815290604052805190602001206001900490508091505090565b6000806101a7610110565b905080600081905550809150509056fea165627a7a7230582042dbbd1978e417f3ed10dddc436697d8d9de431a4f5472ac5600f4fffbc26a160029",
  "source": "pragma solidity ^0.5.0;\n\ncontract rand {\n  uint256 private seed;\n\n\n  constructor() public {\n    seed = getRand();\n  }\n\n  function getRand() public view returns(uint256) {\n    uint256 randNumber = uint256(keccak256(abi.encodePacked(\n      seed,\n      now,\n      block.number,\n      msg.sender\n    )));\n    return randNumber;\n  }\n\n  function update() public returns(uint256) {\n    uint256 randNumber = getRand();\n    seed = randNumber;\n    return randNumber;\n  }\n\n  function easyRand() view public returns(uint256) {\n    return uint256(keccak256(abi.encodePacked(seed)));\n  }\n}\n",
  "sourcePath": "/Users/sugimura/game/ethereum/contracts/rand.sol",
  "compiler": {
    "name": "solc",
    "version": "0.5.0+commit.1d4f565a.Emscripten.clang"
  },
  "schemaVersion": "3.0.0",
  "updatedAt": "2019-01-13T14:27:53.717Z",
  "devdoc": {
    "methods": {}
  },
  "userdoc": {
    "methods": {}
  }
}